:020000040800F2
:10000000FCFF00202117000019170000191700003D
:100010001917000019170000191700001917000020
:100020001917000019170000191700001917000010
:100030001917000019170000191700001917000000
:1000400019170000191700001917000019170000F0
:1000500019170000191700001917000019170000E0
:1000600019170000191700001917000019170000D0
:1000700019170000191700001917000019170000C0
:1000800019170000191700001917000019170000B0
:1000900019170000191700001917000019170000A0
:1000A0001917000019170000191700001917000090
:1000B0001917000019170000191700001917000080
:1000C0001917000019170000191700001917000070
:1000D0001917000019170000191700001917000060
:1000E0001917000019170000191700001917000050
:1000F0001917000019170000191700001917000040
:10010000191700001917000019170000191700002F
:10011000191700001917000019170000191700001F
:10012000191700001917000019170000191700000F
:1001300019170000191700001917000019170000FF
:1001400019170000191700001917000019170000EF
:1001500001480068704700BF8C00002081B0194939
:1001600000EA0101084600220EE0042022E00820F7
:1001700020E010201EE020201CE040201AE080201B
:1001800018E040F2001015E00F498842EDD00F4909
:100190008842ECD00E498842EBD00E498842EAD022
:1001A0000D498842E9D00D498842E8D00C4988427F
:1001B000E7D010460B49096841EA000209490A6084
:1001C00001B0704700FCFFFF00080140000C014037
:1001D000001001400014014000180140001C0140C3
:1001E000002001401810024040F20B07C0F2000747
:1001F0007F1EFDD100BF00BF00BF00BF00BF704722
:1002000082B0CDF800E0034619460191FFF7A0FF48
:1002100040F2E83100FB01F201990A601F490978B8
:10022000C1F30311C8B21E4909180878C0B21A1DDB
:100230001968C140116019490988C1F3022188B2C7
:10024000174909180878C0B203F20802191D096895
:10025000C140116011490988C1F3C22188B2104917
:1002600009180878C0B203F20C02191D0968C140D0
:1002700011600A490988C1F3813188B20949091816
:100280000978C8B203F2100203F20C010968B1FB4D
:10029000F0F11160DDF800E002B070470410024098
:1002A0000C1B00007C14000083B0CDF800E000F0CF
:1002B000FF031A09104603F00F02134614E0194A0F
:1002C00002921FE0184A02921CE0184A029219E0BA
:1002D000174A029216E0174A029213E0164A029257
:1002E00010E0164A02920DE00028E8D00128E9D07B
:1002F0000228EAD00328EBD00428ECD00528EDD062
:100300000628EED0012212B29A40ADF804200298DD
:100310000A46BDF8041000F03BFADDF800E003B037
:10032000704700BF00080140000C01400010014070
:100330000014014000180140001C01400020014051
:1003400081B0ADF800100146BDF800000B68C3F3A2
:10035000C01202B9FAE70A1D106001B07047FFFF32
:1003600081B0CDF800E000F234040A0992B293B2F1
:10037000226863F30412226000F23404CA0892B2C5
:1003800093B2226863F3C302226000F234048A0845
:1003900092B293B2226863F38202226000F23404C4
:1003A0004A0892B293B2226863F34102226000F2DB
:1003B00034048BB2226863F30002226000F2080466
:1003C0000123226863F30002226000F20804012383
:1003D000226863F396522260FFF706FF0368C3F3B7
:1003E000400202B9FAE700F24C02126890B2DDF85E
:1003F00000E001B07047FFFF81B0CDF800E00122BE
:1004000052B23E490A6000F268010B686FF0006169
:1004100003EA0102144603F00061C90E0B4602F024
:100420000041B1F1004F02D135490A6801E0354978
:100430000A6804F47021090C0E464FF6FF7104EAB5
:1004400001010D4604F44011B1F5401F0DD16FF0CC
:10045000706102EA01010E462A490A686FF0706174
:100460000A4028490A60324616E004F48011B1F5CA
:10047000801F09D14FF00301B140C94302EA0101D5
:1004800041F070610A4607E0610D090105FA01F1CA
:10049000C9430A4042F070622BB1610D090105FAAF
:1004A00001F10A43FFE704F00041B1F1004F02D12E
:1004B00013490A6001E013490A6040F2000A8146CC
:1004C0004FEA8A0109EB01010968B1F1FF3F10D041
:1004D00009F134014FEA8A03C91809680A4609EB91
:1004E0000301096808461146FFF7DEFE0AF1010A1A
:1004F000E6E7DDF800E001B0704700BF00034242CC
:100500001C0001400400014089B0CDF800E08346A2
:1005100098B28C46BDF824100A9E04ACADF80410C5
:10052000ADF808002046FFF76BFEBDF80800BDF8E7
:100530000410644CA34512D101256DB2624C2560B4
:10054000624D634C2560634D634C2560634D644C84
:100550002560644D644C2560079C039456E0634C11
:10056000A34512D101256DB2614C2560614D584CF7
:100570002560614D584C2560604D594C2560604D9B
:10058000594C2560069C039440E05E4CA34512D173
:1005900001256DB25C4C25605C4D4D4C25605C4D79
:1005A0004D4C25605B4D4E4C25605B4D4E4C25609F
:1005B000069C03942AE0594CA34512D101256DB243
:1005C000574C2560574D424C2560574D424C256095
:1005D000564D434C2560564D434C2560069C039474
:1005E00014E0544CA34511D101256DB2524C256045
:1005F000524D374C2560524D374C2560514D384C8B
:100600002560514D384C2560069C0394ADF80410CC
:10061000ADF808003046FFF7EFFEBDF80800BDF862
:1006200004100BF1100500242C600BF110052C6850
:100630000C432C600BF10C0500242C6018B140F425
:10064000806080B2FFE70BF10C052C6804432C603E
:100650000BF10C060125346865F34D3434600BF161
:100660000C060125346865F3C30434600BF10C06F5
:100670000125346865F3820434600BF1140500240D
:100680002C60039D192465434FEA8C04B5FBF4F7F5
:100690006424B7FBF4F42601350964246C433C1B45
:1006A000240104F232056424B5FBF4F404F00F04D1
:1006B00046EA04040BF10805A4B22C60DDF800E062
:1006C00009B070470038014038034242250A000053
:1006D00098000020FFFFFFFF9C000020FFFFFFFFAE
:1006E000A0000020FFFFFFFFA40000200044004006
:1006F000C4034242790A0000FFFFFFFFFFFFFFFF34
:10070000FFFFFFFF00480040C8034242090A000003
:10071000FFFFFFFFFFFFFFFFFFFFFFFF004C004059
:10072000CC034242B50B0000FFFFFFFFFFFFFFFFBE
:10073000FFFFFFFF00500040D0034242990B000032
:10074000FFFFFFFFFFFFFFFFFFFFFFFF81B0002361
:100750000360CB009BB242EA030304689BB244EA05
:1007600003030360051D13141C462B6864F3820306
:100770002B6000F21C0500242B6864F3CB232B6054
:100780000124036864F38613036001B07047FFFF20
:1007900081B0CDF800E08CB21546774B00EA030338
:1007A0001E461846FFF7DAFCB4F1FF0F0CD1734B6D
:1007B0009D4203D14FF033333360D9E0422D03D152
:1007C0004FF044333360D3E04FF6FF739C4214D1B3
:1007D0006A4B9D4207D14FF033333360341D4FF0E5
:1007E00033332360C4E0422D07D14FF044333360EC
:1007F000341D4FF044332360BAE00021002005F09F
:1008000001030BB100211DE005F0020333B105F433
:10081000C0730BB1082100E0042113E005F00403CC
:1008200033B105F020030BB1042100E0002109E001
:1008300005F0080333B105F020030BB10C2100E0F3
:100840000821FFE74E4B05EA03030BB1032009E043
:1008500005F400730BB1022004E005F480630BB1D2
:100860000120FFE705F00C030BB10143FFE704F0A3
:10087000FF039BB2002B3BD0376800201FFA84F89F
:1008800032462E4608282CD24FF0010303FA00F41A
:1008900008EA0403A34222D185004FF00F03AB40C6
:1008A000DB4307EA030401FA05F344EA03031D46A8
:1008B00006F48173B3F5817F05D102F214044FF081
:1008C00001038340236006F08203822B05D102F2EC
:1008D00010044FF00103834023602F46FFE7401CC4
:1008E000D0E717601FFA88F00F463146164602E03F
:1008F0000F462946A0B2B0F1FF0F39D9331DD3F806
:1009000000800022082A30D202F208044FF00103CE
:1009100003FA04F400EA0403A34224D195004FF043
:100920000F03AB40DB4308EA030807FA05F348EA84
:10093000030801F48173B3F5817F07D106F2140532
:1009400002F208044FF00103A3402B6001F0820380
:10095000822B07D106F2100502F208044FF00103C2
:10096000A3402B60FFE7521CCCE7331DC3F8008087
:10097000DDF800E001B0704700FCFFFF1400080044
:100980000008080081B000F20C02116000F20802B9
:100990001368C3F3000202B9F8E700F20C02126810
:1009A00090B201B07047FFFF81B0CDF800E0019D2B
:1009B0002C4610B408B493B28AB201460348FFF73C
:1009C000A3FD02B0DDF800E001B070470044004034
:1009D00081B0CDF800E081B20348FFF7D3FFDDF826
:1009E00000E001B0704700BF0030014081B0CDF899
:1009F00000E081B20348FFF7C5FFDDF800E001B079
:100A0000704700BF003C004081B0CDF800E081B2EB
:100A10000348FFF795FCDDF800E001B0704700BF28
:100A20000048004081B0CDF800E081B20348FFF7F4
:100A300087FCDDF800E001B0704700BF00380140DE
:100A400081B0CDF800E081B20348FFF79BFFDDF8ED
:100A500000E001B0704700BF003C004081B0CDF81D
:100A600000E081B20348FFF78DFFDDF800E001B040
:100A7000704700BF0038004081B0CDF800E081B27F
:100A80000348FFF75DFCDDF800E001B0704700BFF0
:100A90000044004081B0CDF800E0019D2C4610B428
:100AA00008B493B28AB201460348FFF72DFD02B0A5
:100AB000DDF800E001B070470038014081B0CDF8AA
:100AC00000E0044A89B2FFF763FEDDF800E001B000
:100AD000704700BF1400080081B0CDF800E081B27B
:100AE0000348FFF73DFCDDF800E001B0704700BFB0
:100AF0000024014083B0CDF800E08DF8040002919D
:100B00000B4C0C4B1C600C4C0C4B1C60012464B255
:100B10000B4B1C601046FFF76FFC029A9DF8041007
:100B20000848FFF713FEDDF800E003B0704700BF90
:100B3000ED09000090000020410A00009400002010
:100B4000BC034242003C004081B0CDF800E081B2DD
:100B50000348FFF705FCDDF800E001B0704700BF77
:100B60000028014081B0CDF800E04FF0420289B288
:100B7000FFF70EFEDDF800E001B0704781B0CDF860
:100B800000E081B20348FFF7FDFEDDF800E001B0B0
:100B9000704700BF0030014081B0CDF800E081B265
:100BA0000348FFF7CDFBDDF800E001B0704700BF60
:100BB0000050004081B0CDF800E081B20348FFF75B
:100BC000BFFBDDF800E001B0704700BF004C004003
:100BD00081B0CDF800E0019D2C4610B408B493B26A
:100BE0008AB201460348FFF78FFC02B0DDF800E04F
:100BF00001B070470048004081B0CDF800E081B2FC
:100C00000348FFF7BFFEDDF800E001B0704700BF0A
:100C10000038004001490860704700BFB08122429F
:100C200001490860704700BF98812242014908606D
:100C3000704700BF9481224201490860704700BF9D
:100C4000B081224201490860704700BFB0012242D2
:100C500001490860704700BFA801224201490860AD
:100C6000704700BFAC01224201490860704700BFD5
:100C70009881214281B00A4681B200208DB211468E
:100C8000052805D20B1820221A70401CC0B2F7E7C5
:100C90000B1800221A70401EC0B20C180A23B5FBB4
:100CA000F3F203FB125292B2303222700A22B5FBE9
:100CB000F2F292B295B202B902E0401EC0B2ECE785
:100CC00001B0704783B0CDF800E08AB2014690B21F
:100CD00083B2421E90B26BB10A78D4B2ADF8040070
:100CE0000291A0B2054C2468A0470299BDF8040007
:100CF000491CEDE7DDF800E003B07047A8000020D4
:100D000083B0CDF800E0ADF808100190BDF80830D0
:100D1000BDF80820521EADF808204BB10020064C4B
:100D20002468A047019A1070019A521C0192EDE7C5
:100D3000DDF800E003B07047B400002081B0CDF8CA
:100D400000E00178CCB2A0B2034C2468A047002098
:100D5000DDF800E001B0704788000020014908601C
:100D6000704700BF9C812142026803490A60011D4F
:100D70000A6802490A607047A8000020B4000020F9
:100D800000F230010A6804490A6000F208010A68AA
:100D900002490A60704700BFB0000020AC0000208C
:100DA00001490860704700BFB881224281B0CDF888
:100DB00000E0094902B440F2000340F2000240F2B0
:100DC0000001FFF7F1FD01B0044A05490A60002067
:100DD000DDF800E001B0704768190000790A0000F2
:100DE0008800002081B0CDF800E0094902B440F24B
:100DF000000340F2000240F20001FFF74BFE01B099
:100E0000044A05490A600020DDF800E001B070479F
:100E1000D4190000250A000088000020014908605C
:100E2000704700BF9001214201490860704700BF30
:100E3000B481224201490860704700BF8801224204
:100E400081B0CDF800E0094902B440F2000340F25D
:100E5000000240F20001FFF7A7FD01B0044A054976
:100E60000A600020DDF800E001B07047681900005A
:100E7000790A00008800002081B0CDF800E0A9E0E8
:100E8000012905D140F220016548FFF76BFE04E01F
:100E900040F220016248FFF711FEBBE0012905D1B5
:100EA00040F208015F48FFF75DFE04E040F20801F0
:100EB0005C48FFF703FEADE0012905D144F20001D3
:100EC0005948FFF74FFE04E044F200015648FFF78F
:100ED000F5FD9FE0012905D140F200415148FFF79F
:100EE00041FE04E040F200414E48FFF7E7FD91E08B
:100EF000012905D140F600014A48FFF733FE04E01E
:100F000040F600014748FFF7D9FD83E0012905D1EC
:100F100041F200014348FFF725FE04E041F20001E1
:100F20004048FFF7CBFD75E0012905D141F20001F2
:100F30003D48FFF717FE04E041F200013A48FFF791
:100F4000BDFD67E0012905D140F600013648FFF7F5
:100F500009FE04E040F600013348FFF7AFFD59E019
:100F6000012905D140F240012F48FFF7FBFD04E0C5
:100F700040F240012C48FFF7A1FD4BE0012905D1CB
:100F800040F220012848FFF7EDFD04E040F2200187
:100F90002548FFF793FD3DE0012905D140F24001CE
:100FA0002248FFF7DFFD04E040F240011F48FFF751
:100FB00085FD2FE0012905D140F280011B48FFF794
:100FC000D1FD04E040F280011848FFF777FD21E0F1
:100FD000012020E000283FF453AF01283FF45EAF2A
:100FE00002283FF469AF03283FF474AF04283FF4AC
:100FF0007FAF05283FF48AAF06283FF495AF072856
:10100000A0D00828ACD00928B8D00A28C4D00B2812
:10101000D0D0DDE70020DDF800E001B0704700BF70
:10102000000801400010014000140140000C014084
:1010300081B0CDF800E0A9E0012905D140F210010E
:101040006548FFF78FFD04E040F210016248FFF7AA
:1010500035FDBBE0012905D140F204015F48FFF7EF
:1010600081FD04E040F204015C48FFF727FDADE09C
:10107000012905D142F200015948FFF773FD04E050
:1010800042F200015648FFF719FD9FE0012905D102
:1010900040F200415148FFF765FD04E040F2004195
:1010A0004E48FFF70BFD91E0012905D140F6000104
:1010B0004A48FFF757FD04E040F600014748FFF7B4
:1010C000FDFC83E0012905D141F200014348FFF70F
:1010D00049FD04E041F200014048FFF7EFFC75E0F4
:1010E000012905D140F201013B48FFF73BFD04E037
:1010F00040F201013848FFF7E1FC67E0012905D122
:1011000040F200413648FFF72DFD04E040F2004177
:101110003348FFF7D3FC59E0012905D140F2002103
:101120002F48FFF71FFD04E040F200212C48FFF795
:10113000C5FC4BE0012905D140F200112848FFF71A
:1011400011FD04E040F200112548FFF7B7FC3DE037
:10115000012905D140F240012248FFF703FD04E0D8
:1011600040F240011F48FFF7A9FC2FE0012905D1FB
:1011700040F280011B48FFF7F5FC04E040F28001DB
:101180001848FFF79BFC21E0012020E000283FF4F5
:1011900053AF01283FF45EAF02283FF469AF032844
:1011A0003FF474AF04283FF47FAF05283FF48AAFC3
:1011B00006283FF495AF0728A0D00828ACD009280E
:1011C000B8D00A28C4D00B28D0D0DDE70020DDF845
:1011D00000E001B0704700BF00080140001001406E
:1011E00000140140000C014081B0CDF800E0011D69
:1011F0000A680168C8B21146034AFFF77BFC002069
:10120000DDF800E001B07047401A000081B0CDF871
:1012100000E0094902B440F2000340F2000240F24B
:101220000001FFF7D5FC01B0044A05490A6000201F
:10123000DDF800E001B07047FC180000090A00006A
:101240008800002081B0CDF800E0011D0A68016827
:10125000C8B21146034AFFF74DFC0020DDF800E05C
:1012600001B07047401A000001490860704700BF94
:10127000A081224201490860704700BFA481224238
:1012800001490860704700BFA881224201490860F7
:10129000704700BF9881214201490860704700BF34
:1012A0008C01224201490860704700BF940121422D
:1012B00001490860704700BF9C81214201490860D4
:1012C000704700BF8001214201490860704700BF9C
:1012D000A801224201490860704700BFB0012242C4
:1012E00001490860704700BFAC01224281B0CDF8CF
:1012F00000E08B4609E05846FFF776FF0AE05846C3
:10130000FFF7A0FF06E0012004E00028F3D0012849
:10131000F5D0F8E7DDF800E001B0704740F2333176
:10132000B0FBF1F292B214215143C8B27047FFFFF3
:1013300081B0CDF800E00E46002183B2002805DA26
:101340000121404280B280B28FB201E098B28FB2E8
:101350003146FFF78FFC06213446B8B2002908D980
:1013600063184A1E92B2A21812781A70491E89B2E6
:10137000F4E72022227070B1002081B2204642188A
:101380001278202A02D1491C89B2F8E74A1E92B28B
:1013900083182D221A70DDF800E001B07047FFFFBE
:1013A00083B0CDF800E0024610460D228DF80820EB
:1013B0000A228DF809201FE0FFF7C0FC23E0027825
:1013C0002AB10190FFF7BAFC0198401CF7E71AE038
:1013D00002782AB10190FFF7B1FC0198401CF7E7B1
:1013E00002AA1046FFF7AAFC0DF109021046FFF70A
:1013F000A5FC08E0062007E00029DDD00129DED0A9
:101400000229E5D0F6E70020DDF800E003B07047E0
:1014100081B0CDF800E05FFA81F95FFA82FA0FE05F
:101420005FFA8AF15FFA89F0FFF702FE0DE05FFADA
:101430008AF15FFA89F0FFF71FFD06E0012004E062
:101440000028EDD00128F2D0F8E7DDF800E001B087
:101450007047FFFF81B0CDF800E003460846FFF774
:1014600083FC1846FFF78CFC0120034C2468A0473E
:10147000DDF800E001B07047AC000020020406086F
:1014800044F67F77C0F212077F1EFDD100BF00BF78
:1014900000BF00BF00BF704781B0CDF800E011E091
:1014A0000846FFF7B3FE16E00846FFF7C9FC12E056
:1014B0000846FFF797FC0EE00846FFF777FC0AE0C6
:1014C000012008E00028EBD00128EDD02028EFD043
:1014D0003028F1D0F4E7DDF800E001B07047FFFFFD
:1014E00082B0CDF800E001A9802008700020104CE7
:1014F0002468A04701A80121FFF7E4FB0DF10500D6
:101500000221FFF7FDFB0120094C2468A0470DF1E3
:101510000502107800F00F00C0B2010289B2501C21
:10152000007841EA0000DDF800E002B0704700BF3B
:10153000AC00002081B0CDF800E009490948FFF770
:1015400089FF09480221FFF72BFF08480221FFF716
:1015500027FFFFF795FFDDF800E001B0704700BFFF
:10156000241B0000AC1A0000000000201600002020
:1015700081B01548006840F001011348016013492B
:101580001348016010480168124801400E4801608C
:101590000D4801686FF4802001400B4801600C4841
:1015A00001686FF4FE0001400948016006480168C7
:1015B0006FF0A0500140044801604FF00001064860
:1015C000016001B0704700BF001002400000FFF052
:1015D00004100240FFFFF6FE2C10024081B01CF800
:1015E000019B0BF8019BBBEB0A0FF8D101B07047D0
:1015F00081B0CDF800E0FFF773FF1B490880FFF7CB
:101600008DFE1A4908701A490978814227D0194875
:101610000121FFF7C5FE154800781749FFF788FE3E
:1016200001211548FFF7BCFE14480221FFF7B8FE60
:1016300013480121FFF7B4FE0B4800880E49FFF75D
:1016400077FE02210C48FFF7ABFE0E480221FFF7A0
:10165000A7FE0648017806480170FFF711FFDDF884
:1016600000E001B0704700BF780000207A00002041
:1016700032000020330000207B00002046000020C4
:10168000490000205C00002081B0CDF800E001227C
:1016900000210020FFF7BCFE002202210020FFF7FE
:1016A000B7FE084801460020FFF720FE42F28051B5
:1016B0000120FFF7F1FEFFF7E3FEDDF800E001B0E7
:1016C000704700BF1C1B000081B04FF000094FF0B5
:1016D000000CBDEB0A0F04DCBDEB0B0F01DBD446A5
:1016E000EA464BF8049BBBEB0A0FFAD1BCEB0A0F9E
:1016F00005DDE246D9F800B00BF1040BF1E701B0CB
:101700007047FFFF81B002490248016001B0704795
:10171000401901008C00002081B0FEE701B0704745
:1017200000F00EF800F042FAFFF7ECFF00F0FEF9CF
:10173000FFF7AAFFFFF7FEFEFFF75AFFFCE7FEE701
:1017400081B0CDF800E0464A464B474C47494BF63E
:101750008030814206D94648006840F00201444882
:10176000016011E045F6C050814206D9404800684A
:1017700040F001013E48016006E03D4801686FF01D
:10178000070001403A480160FFF7F2FE3948036064
:1017900039480460394802EA00013948016002F022
:1017A000010040B119463648006800F002000028E8
:1017B00000D1F8E700E0194602F4803040B10B4652
:1017C0002F48006800F40030002800D1F8E700E05E
:1017D0000B4602F0805068B12948006840F0805103
:1017E000274801602648006800F00050002800D11A
:1017F000F8E7FFE702F0806078B12148006840F028
:1018000080611F48016011461A461D48006800F0BB
:101810000060002800D1F8E701E011461A4601F007
:10182000807070B11648006840F080711448016003
:1018300011461348006800F0007000B9F9E70A4645
:10184000FFE70C48006800F00C01900000F00C006D
:10185000814200D0F5E7DDF800E001B0704700BF3D
:101860008100010502841D004406010040190100A9
:1018700000200240041002402C100240FFFF0F0025
:101880000010024020202020202020496E69746929
:10189000616C697A6174696F6E002D2D2D2D2D2D6F
:1018A0002D2D2D2D2D2D2D2D2D2D2D2D2D2D2D2D68
:1018B0002D2D2D2D2D0000204C6967687420496E58
:1018C00074656E73697479203A00202500204C6994
:1018D0006768742056616C756520202020203A00CE
:1018E0002D2D2D2D2D2D2D2D2D2D2D2D2D2D2D2D28
:1018F0002D2D2D2D2D2D2D2D2D2D2D0038000000C1
:1019000039000000FFFFFFFF0000000000000000A2
:1019100000000000000000000000000000000000C7
:1019200000000000000000000000000000000000B7
:10193000180800001800000000000000000000006F
:101940000000000000000000000000000000000097
:101950000000000000000000000000000000000087
:1019600000000000300014083500000036000000C0
:10197000FFFFFFFF0000000000000000000000006B
:101980000000000000000000000000000000000057
:101990000000000000000000000000001808000027
:1019A000180000000000000000000000000000001F
:1019B0000000000000000000000000000000000027
:1019C0000000000000000000000000000000000017
:1019D00008000008090000000A000000FFFFFFFFE8
:1019E00000000000000000000000000000000000F7
:1019F00000000000000000000000000000000000E7
:101A0000000000000000000018080000180000009E
:101A100000000000000000000000000000000000C6
:101A200000000000000000000000000000000000B6
:101A300000000000000000000000000004000000A2
:101A40002A0000002B0000002C000000FFFFFFFF19
:101A50000000000000000000000000000000000086
:101A60000000000000000000000000000000000076
:101A70000000000018080000180800001808000006
:101A80000000000000000000000000000000000056
:101A90000000000000000000000000000000000046
:101AA0000000000000000000001120081D0E0000D2
:101AB000350E0000290E0000C9120000E1120000DE
:101AC000D5120000BD120000811200007512000046
:101AD000691200008D120000B1120000FFFFFFFF2D
:101AE000FFFFFFFFFFFFFFFFFFFFFFFFFFFFFFFF06
:101AF000FFFFFFFFFFFFFFFFFFFFFFFFFFFFFFFFF6
:101B0000FFFFFFFFFFFFFFFFFFFFFFFF00000000E1
:101B1000010203040102030406070809070000008C
:101B200004030000410A0000ED09000000B5DFF8E1
:101B300014B0DFF814A0DFF814C0FFF74FFD00BDAC
:101B4000704700BF000000207800002084180000CB
:101B5000FFFFFFFFFFFFFFFFFFFFFFFFFFFFFFFF95
:101B6000FFFFFFFFFFFFFFFFFFFFFFFFFFFFFFFF85
:101B7000FFFFFFFFFFFFFFFFFFFFFFFFFFFFFFFF75
:101B8000FFFFFFFFFFFFFFFFFFFFFFFFFFFFFFFF65
:101B9000FFFFFFFFFFFFFFFFFFFFFFFFFFFFFFFF55
:101BA000FFFFFFFFFFFFFFFFFFFFFFFF00B5DFF8B5
:101BB00010B0DFF810A0FFF787FD00BD704700BF31
:101BC00000000020B8000020FFFFFFFFFFFFFFFF25
:00000001FF
