:10000000B6EF09F00000000000EF00F00000000073
:0A0010000000000000000000F3D71C
:0E001C000001DBB102D0899801D08988120062
:0E002A000001DBB102D08B9E01D08B8E120044
:0E0038000001DBB102D08D9201D08D8212004A
:0E0046000001DBB102D0899201D08982120044
:0E0054000001DBB102D08B9C01D08B8C12001E
:0E0062000001DBB102D08B9601D08B8612001C
:0E0070000001DBB102D08D9601D08D8612000A
:0E007E000001DBB102D08A9201D08A8212000A
:0E008C000001DBB102D08B9801D08B881200EE
:0E009A000001DBB102D08B9601D08B861200E4
:0E00A8000001DBB102D08D9001D08D801200DE
:0E00B6000001DBB102D08B9201D08B821200D0
:0E00C4000001DBB102D08B9A01D08B8A1200B2
:0E00D2000001DBB102D08B9401D08B841200B0
:0E00E000ACB202D00000FCD7DBC0ADFF1200B6
:0E00EE000001DBB102D08B9801D08B8812008C
:0E00FC000001DBB102D08B9C01D08B8C120076
:10010A00DBC0C9FF016A0150000A05E1000EC7B051
:0C011A00010E016EF8D7C9CF01F01200F1
:10012600DBC06AFF016A0150000A05E1000E68B0F3
:0C013600010E016EF8D76ACF01F0120034
:0E0142000001DBB102D08B9801D08B88120037
:0E0150000001DBB102D08A9001D08A8012003B
:0E015E000001DBB102D08B9E01D08B8E12000F
:0E016C000001DBB102D08B9A01D08B8A120009
:0E017A000001DBB102D08B9601D08B86120003
:0E0188000001DBB102D08A9401D08A841200FB
:0E0196000001DBB102D08F9401D08F841200E3
:0E01A4000001DBB102D08F9201D08F821200D9
:1001B200DBC0C9FF016A0150000A05E1000EC7B0A9
:0C01C200010E016EF8D7C9CF00F012004A
:0E01CE000001DBB102D08F9001D08F801200B3
:0E01DC000001DBB102D08B9801D08B8812009D
:0E01EA000001DBB102D08B9801D08B8812008F
:0E01F8000001DBB102D08D9401D08D84120085
:0E0206000001DBB102D0899401D0898412007E
:0E0214000001DBB102D08B9601D08B86120068
:0E0222000001DBB102D08B9601D08B8612005A
:0E0230000001DBB102D08B9A01D08B8A120044
:10023E00DBC06AFF016A0150000A05E1000E68B0DA
:0C024E00010E016EF8D76ACF00F012001C
:0E025A000001DBB102D08B9801D08B8812001E
:0E0268000001DBB102D08B9601D08B86120014
:0E0276000001DBB102D0899001D08980120016
:0E0284000001DBB102D08B9001D08B80120004
:100292000F0121B302D00000FBD7DBC01CFF12000C
:1002A200B20E0001946F010E956FDB0E966F000E79
:1002B200976F0A0E906F010E916FDB0E926F000E18
:1002C200936F949AD751040A02E1948601D09496CE
:1002D2009488C66AC79CC79ED751C612D951C61206
:1002E200D851C712D95305E0DA51000AD8B4C78CE5
:0C02F20003D0DA53D8A4C78CC68A1200CF
:1002FE00086A096A100E0C6E01340836093604506D
:10030E00085E0550D8A0053C095ED8B007D0045051
:10031E0008260550D8B0053C0926D890003601367F
:06032E000C2EEAD71200BC
:10033400E00E0001A66F000EA76FDB0EA86F000E83
:10034400A96FFF0EB26FFF0EB36F000EB46F000EF5
:10035400B56FFF0EAE6FFF0EAF6F000EB06F000EE5
:10036400B16FFF0EAA6FFF0EAB6F000EAC6F000EE5
:10037400AD6FAC8A900EAB6E948E949C9EAA03D003
:08038400AECF00F0FBD7120020
:10038C00920E0001A66F020EA76FDB0EA86F000E77
:10039C00A96FFF0EB26FFF0EB36F000EB46F000E9D
:1003AC00B56FFF0EAE6FFF0EAF6F000EB06F000E8D
:1003BC00B16FFF0EAA6FFF0EAB6F000EAC6F000E8D
:1003CC00AD6F0F01218B900E226F98849892A4AA86
:0A03DC0003D01DCF00F0FBD7120084
:1003E600F250026EF29E0500FF6A0150FE6E00504A
:0803F600FD6E02BEF28E120042
:1003FE0021D0CF0EAF6EAC9496DF6BD0670EAF6E82
:10040E00AC9491DF66D0CF0EAF6EAC848CDF61D032
:10041E00670EAF6EAC8487DF5CD0440EAF6EAC84DB
:10042E0082DF57D0220EAF6EAC847DDF52D0060E27
:10043E00006E58D00001000E006ED31908E1005076
:10044E00D21905E1120ED11902E1D051C00AD1E044
:10045E00000E006ED31908E10050D21905E1250EE9
:10046E00D11902E1D051800AC9E0000E006ED319F5
:10047E0008E10050D21905E14B0ED11902E1D0511D
:10048E00000AC1E0000E006ED31908E10050D21927
:10049E0005E1960ED11902E1D051000AB9E0000E25
:1004AE00006ED31908E10050D21905E1E10ED11901
:1004BE0002E1D051000AB1E0D351000A08E1D25155
:1004CE00010A05E1D151C20A02E1D051000AAAE0A7
:1004DE00AED7E00E986F000E996FDB0E9A6F000E7E
:0604EE009B6F006A120082
:1004F40021D0CF0EAF6EAC941BDF6BD0670EAF6E06
:10050400AC9416DF66D0CF0EAF6EAC8411DF61D031
:10051400670EAF6EAC840CDF5CD0440EAF6EAC845F
:1005240007DF57D0220EAF6EAC8402DF52D0060E26
:10053400006E58D00001000E006ED31908E100507F
:10054400D21905E1120ED11902E1D051C00AD1E04D
:10055400000E006ED31908E10050D21905E1250EF2
:10056400D11902E1D051800AC9E0000E006ED319FE
:1005740008E10050D21905E14B0ED11902E1D05126
:10058400000AC1E0000E006ED31908E10050D21930
:1005940005E1960ED11902E1D051000AB9E0000E2E
:1005A400006ED31908E10050D21905E1E10ED1190A
:1005B40002E1D051000AB1E0D351000A08E1D2515E
:1005C400010A05E1D151C20A02E1D051000AAAE0B0
:1005D400AED7E00E986F000E996FDB0E9A6F000E87
:0605E4009B6F006A12008B
:1005EA0038D00F0120870D0E1F6F040E1E6F218554
:1005FA00C8DE7ED00F012087060E1F6F820E1E6F87
:10060A002185BFDE75D00F012087030E1F6F400EB4
:10061A001E6F2185B6DE6CD00F012087010E1F6F79
:10062A00A00E1E6F2185ADDE63D00F012087010E5B
:10063A001F6F150E1E6F2185A4DE5AD00F01208769
:10064A001F6B8A0E1E6F21859CDE52D0060E006E2D
:10065A0059D0000E006E0001D31908E10050D219DA
:10066A0005E1120ED11902E1D051C00ABAE0000E1A
:10067A00006ED31908E10050D21905E1250ED119EF
:10068A0002E1D051800AB6E0000E006ED31908E1EB
:10069A000050D21905E14B0ED11902E1D051000ADE
:1006AA00B2E0000E006ED31908E10050D21905E13C
:1006BA00960ED11902E1D051000AAEE0000E006E8A
:1006CA00D31908E10050D21905E1E10ED11902E16E
:1006DA00D051000AAAE0D351000A08E1D251010A16
:1006EA0005E1D151C20A02E1D051000AA7E0AED712
:1006FA000001920E986F020E996FDB0E9A6F000E30
:06070A009B6F006A120063
:1007100021D0CF0EAF6EAC940DDE6BD0670EAF6EF6
:10072000AC9408DE66D0CF0EAF6EAC8403DE61D031
:10073000670EAF6EAC84FEDD5CD0440EAF6EAC8451
:10074000F9DD57D0220EAF6EAC84F4DD52D0060E28
:10075000006E58D00001000E006ED31908E1005061
:10076000D21905E1120ED11902E1D051C00AD1E02F
:10077000000E006ED31908E10050D21905E1250ED4
:10078000D11902E1D051800AC9E0000E006ED319E0
:1007900008E10050D21905E14B0ED11902E1D05108
:1007A000000AC1E0000E006ED31908E10050D21912
:1007B00005E1960ED11902E1D051000AB9E0000E10
:1007C000006ED31908E10050D21905E1E10ED119EC
:1007D00002E1D051000AB1E0D351000A08E1D25140
:1007E000010A05E1D151C20A02E1D051000AAAE092
:1007F000AED7E00E986F000E996FDB0E9A6F000E69
:060800009B6F006A12006C
:100806005DD00001D1B102D0929401D092840F0143
:1008160025957AD00001D1B102D0969601D0968660
:1008260073D00001D1B102D0969401D096846CD0D9
:100836000001D1B102D0949601D0948665D0000112
:10084600D1B102D0949801D094885ED00001D1B184
:1008560002D0949A01D0948A57D00001D1B102D027
:10086600989001D0988050D00001D1B102D09394D5
:1008760001D0938449D00001D1B102D0989401D01F
:1008860098840F01239540D00001D1B102D09892EF
:1008960001D098820F01239337D00001D1B102D045
:1008A600949601D0948630D00001D1B102D09498AC
:1008B60001D0948829D0010E006E28D00001D051B5
:1008C600000A9FE0D051010AA5E0D051020AA9E032
:1008D600D051030AADE0D051040AB1E0D051050A67
:1008E600B5E0D051060AB9E0D051070ABDE0D051B3
:1008F600080AC1E0D051090AC7E0D0510A0ACDE082
:0E090600D0510B0AD1E0D7D7000E006E1200C0
:1009140059D00001D1B102D0929201D092820F013C
:10092400259376D00001D1B102D0929801D092885B
:100934006FD00001D1B102D0969201D0968268D0D6
:100944000001D1B102D0949601D0948661D0000107
:10095400D1B102D0949801D094885AD00001D1B179
:1009640002D0949A01D0948A53D00001D1B102D01C
:10097400949401D094844CD00001D1B102D09392CC
:1009840001D0938245D00001D1B102D0949E01D010
:10099400948E3ED00001D1B102D0949C01D0948CAD
:1009A40037D00001D1B102D0949601D0948630D0D2
:1009B4000001D1B102D0949801D0948829D0010EBD
:1009C400006E28D00001D051000AA3E0D051010AE2
:1009D400A9E0D051020AADE0D051030AB1E0D051F0
:1009E400040AB5E0D051050AB9E0D051060ABDE0C9
:1009F400D051070AC1E0D051080AC5E0D051090A14
:100A0400C9E0D0510A0ACDE0D0510B0AD1E0D7D7C2
:060A1400000E006E12004E
:100A1A0059D00001D1B102D0929001D092800F0139
:100A2A00259176D00001D1B102D0949001D0948062
:100A3A006FD00001D1B102D0969001D0968068D0D3
:100A4A000001D1B102D0949601D0948661D0000100
:100A5A00D1B102D0949801D094885AD00001D1B172
:100A6A0002D0949A01D0948A53D00001D1B102D015
:100A7A00949201D094824CD00001D1B102D09390CB
:100A8A0001D0938045D00001D1B102D0949E01D00B
:100A9A00948E3ED00001D1B102D0949C01D0948CA6
:100AAA0037D00001D1B102D0949601D0948630D0CB
:100ABA000001D1B102D0949801D0948829D0010EB6
:100ACA00006E28D00001D051000AA3E0D051010ADB
:100ADA00A9E0D051020AADE0D051030AB1E0D051E9
:100AEA00040AB5E0D051050AB9E0D051060ABDE0C2
:100AFA00D051070AC1E0D051080AC5E0D051090A0D
:100B0A00C9E0D0510A0ACDE0D0510B0AD1E0D7D7BB
:060B1A00000E006E120047
:100B2000D0C0F6FFD1C0F7FFD2C0F8FF0900F5CF63
:100B3000D7F0040E0001D025F66E000ED121F76E1D
:100B4000000ED221F86E0900F5CFD8F0080ED0259E
:100B5000F66E000ED121F76E000ED221F86E09005C
:100B6000F5CFD9F00C0ED025F66E000ED121F76E20
:100B7000000ED221F86E0900F5CFDAF051EC01F049
:060B8000000E006E1200E1
:100B8600D0C0F6FFD1C0F7FFD2C0F8FF0900F5CFFD
:100B9600D7F0040E0001D025F66E000ED121F76EB7
:100BA600000ED221F86E0900F5CFD8F0080ED02538
:100BB600F66E000ED121F76E000ED221F86E0900F6
:100BC600F5CFD9F00C0ED025F66E000ED121F76EBA
:100BD600000ED221F86E0900F5CFDAF051EC01F0E3
:060BE600000E006E12007B
:100BEC00D0C0F6FFD1C0F7FFD2C0F8FF0900F5CF97
:100BFC00D7F0040E0001D025F66E000ED121F76E51
:100C0C00000ED221F86E0900F5CFD8F0080ED025D1
:100C1C00F66E000ED121F76E000ED221F86E09008F
:100C2C00F5CFD9F00C0ED025F66E000ED121F76E53
:100C3C00000ED221F86E0900F5CFDAF051EC01F07C
:060C4C00000E006E120014
:100C52000001D46B050ED45D0AE2D451D225E16EB7
:100C6200000ED321E26E200EE66ED42BF3D7D451C0
:100C7200D225E16E000ED321E26EE66AD407D4518A
:100C8200D225D56F000ED321D66F0A0E046E000E48
:100C9200056ED0C000F0D1C001F07FEC01F008C0B9
:100CA20000F009C001F0300E0026D5C0E1FFD6C029
:100CB200E2FF00C0E6FF0A0E046E000E056ED0C011
:100CC20000F0D1C001F07FEC01F000C0D0F001C013
:100CD200D1F0000E011802E1000E001801E102D06D
:060CE200D407CDD712007B
:100CE8009AC0E1FF9BC0E2FFD0C0E9FFD1C0EAFF94
:100CF800EECFE6FF98C000F099C001F0F3EC01F0E8
:040D0800006A12006B
:100D0C000B6A0A6A096A00500402F4CF09F0F3CFA7
:100D1C0008F001500502F4CF0BF0F3CF0AF00050AD
:100D2C000502F3500926F4500A22E86A0B220150FE
:100D3C000402F3500926F4500A22E86A0B2208C078
:100D4C0000F009C001F00AC002F00BC003F0120061
:100D5C00D0C0D4F0D1C0D5F0D2C000F0D3C001F0D7
:100D6C00010E0001D25F000ED35B0050011014E0A5
:100D7C00C4C0E1FFC5C0E2FFD4C0E9FFD5C0EAFFA3
:100D8C00EECFE6FFC2C000F0C3C001F0F3EC01F0FF
:0A0D9C000001D44BD52BE0D7120064
:100DA600D0C0D4F0D1C0D5F0D2C000F0D3C001F08D
:100DB600010E0001D25F000ED35B0050011015E05A
:100DC600C0C0E1FFC1C0E2FFE66ABEC000F0BFC01E
:100DD60001F0F3EC01F0D4C0E1FFD5C0E2FF00C0A2
:0C0DE600E6FF0001D44BD52BDFD7120034
:100DF200D0C0F6FFD1C0F7FFD2C0F8FF0900F5CF8F
:100E0200C2F00900F5CFC3F00900F5CFC4F0090024
:100E1200F5CFC5F0040E0001D025F66E000ED121EB
:100E2200F76E000ED221F86E0900F5CFBEF0090070
:100E3200F5CFBFF00900F5CFC0F00900F5CFC1F042
:020E420012009C
:100E4400300E0001D025F66E000ED121F76E000E93
:100E5400D221F86E0900F5CFBAF00900F5CFBBF046
:100E64000900F5CFBCF00900F5CFBDF0080ED02580
:100E7400F66E000ED121F76E000ED221F86E090035
:100E8400F5CFB6F00900F5CFB7F00900F5CFB8F00B
:080E94000900F5CFB9F01200CE
:100E9C001BD0C7C0D0F0C8C0D1F0C9C0D2F0A0DE02
:100EAC001ED0C7C0D0F0C8C0D1F0C9C0D2F065DE2A
:100EBC0016D0C7C0D0F0C8C0D1F0C9C0D2F02ADE5D
:100ECC000ED0010E006E0BD00001C651000AE1E0FD
:100EDC00C651010AE6E0C651020AEBE0F2D7120055
:100EEC00090E0B6E1E0E0C6EE40E0D6E0D2EFED743
:0C0EFC000C2EFCD70B2EFAD700001200C1
:100F080015D0C7C0D0F0C8C0D1F083DD1AD0C7C093
:100F1800D0F0C8C0D1F0FADC14D0C7C0D0F0C8C037
:100F2800D1F06DDC0ED0010E006E0BD00001C65161
:100F3800000AE7E0C651010AEAE0C651020AEDE0FC
:040F4800F2D71200CA
:100F4C00800E0001C66FB8C0E1FFB9C0E2FFE66ACF
:100F5C00B6C000F0B7C001F0F3EC01F0C60E000112
:100F6C00D06F000ED16F010ED26F000ED36FF0DE7A
:100F7C00C70ED06F000ED16F020ED26F000ED36F62
:100F8C000CDFB8C0E1FFB9C0E2FF010EE66EB6C0DF
:100F9C0000F0B7C001F0F3EC01F00001C96BCA6BB3
:100FAC000F0EC715C96FCA6B000ECA17000ECA6F99
:100FBC00C9C001F0006A00C0C9F001C0CAF0C85134
:100FCC000012000E011200C0C9F001C0CAF01200DC
:100FDC00330E046E030E056EC6C000F0C7C001F0E0
:100FEC007FEC01F000C0C6F001C0C7F0140E046E17
:100FFC00000E056E85DE00C0C6F001C0C7F0120001
:10100C002FD0C7C0D0F0C8C0D1F0C9C0D2F0CAC070
:10101C00D3F088EC03F032D0C7C0D0F0C8C0D1F008
:10102C00C9C0D2F0CAC0D3F0FFEC01F027D0C7C0C2
:10103C00D0F0C8C0D1F0C9C0D2F0CAC0D3F0F5EC22
:10104C0002F01CD0C7C0D0F0C8C0D1F0C9C0D2F0DB
:10105C00CAC0D3F07AEC02F011D0010E006E0ED0A3
:10106C000001C651000ACDE0C651010AD5E0C651B7
:0E107C00020ADDE0C651100AE5E0EFD71200CF
:10108A00C6C0C9F0C7C0CAF00D0E0001CB6F0A0E68
:10109A00CC6F35D0C9C0D0F0CAC0D1F020DE3AD06A
:1010AA00C9C0E9FFCAC0EAFFEE5209E0C9C0D0F0E0
:1010BA00CAC0D1F014DE0001C94BCA2BF1D72AD01D
:1010CA00C9C0E9FFCAC0EAFFEE5209E0C9C0D0F0C0
:1010DA00CAC0D1F004DE0001C94BCA2BF1D7000106
:1010EA00CB0ED06F000ED16FFADDCC0E0001D06F9F
:1010FA00000ED16FF4DD0ED0060E006E0CD000018A
:10110A00C851000AC7E0C851010ACAE0C851020A18
:08111A00D7E0F2D7006A1200D1
:101122000001CC6BCD6BC6C0CEF0C7C0CFF0800E35
:10113200C719006E800E005C02E1000EC65D0BE274
:10114200010ECC6F000ECD6FC6510008CE6FC7C026
:10115200CFF0000ECF57CEC0D0F0CFC0D1F0C8C074
:10116200D2F0C9C0D3F074DD060ECA6F000ECB6F89
:10117200000E006ECB51005C02E1CA51000819E278
:10118200CA51C825E16ECB51C921E26E010ECA5D7A
:10119200006E000ECB59016E0050C825E96E015059
:1011A200C921EA6EEECFE6FF010ECA5F000ECB5BED
:1011B200DFD7C8C0E1FFC9C0E2FF200EE66ECC5106
:1011C200CD111AE0CA6BCB6BCA51C825E96ECB515F
:1011D200C921EA6EEE50200A03E1CA4BCB2BF4D7A9
:1011E200010ECA5F000ECB5BCA51C825E16ECB511E
:0A11F200C921E26E2D0EE66E120018
:1011FC00C9C0D0F0CAC0D1F0CBC0D2F0F4DDC6C0AB
:10120C00D0F0C7C0D1F0C8C0D2F016DEB8C0E1FF34
:10121C00B9C0E2FF010EE66EB6C000F0B7C001F037
:06122C00F3EC01F01200DA
:101232000001C66BC76B010EC86F65DE0001C66B8D
:10124200020EC76FC86B5FDE0001C66B520EC76F1E
:10125200140EC86F000EC96F20DE010EC66F800E1D
:10126200C76F250EC86F000EC96FCA6FCEDE3DDE96
:02127200120068
:101274000900F5CFE6FF0006FBE10106F9E11200E3
:10128400F20E0001C66F130EC76F000EC86F620E18
:10129400C96F140ECA6F000ECB6FAEDF310E0001A2
:1012A400C66F000EC76F020EC86FEDDE150E00018B
:1012B400C66F000EC76F020EC86FE5DE15DE1200A2
:1012C40043DE00C08DF001C08EF000C0C6F001C046
:1012D400C7F082DE00C08FF04750001844E0770E5C
:1012E400C66F000EC76F010EC86FCDDE8FC0C6F08B
:1012F400000E0001C76F9C0EC86F000EC96F0FDF90
:101304009C0EC66F000EC76F010EC86FBCDE8A0E3E
:101314000001C66F000EC76F020EC86FB4DE480E20
:101324000001C66F000EC76F010EC86FACDE8DC022
:10133400C6F08EC0C7F09C0E0001C86F000EC96FC6
:10134400EEDE9C0EC66F000EC76F020EC86F9BDEEA
:101354005B0E0001C66F000EC76F020EC86F93DEEE
:081364008FC047F0C1DD12004B
:0E136C0035EC0AF060DF88DFA7DFFED7FFD781
:10146A0010EE15F0780E006E010E016E7A0EF66E11
:0E147A00130EF76E000EF86E3AEC09F0120039
:10137A002D2D2D2D2D2D2D2D2D2D2D2D2D2D2D2D93
:0C138A002D2D2D2D2D2D2D2D2D2D2D0068
:1013960020202020202020496E697469616C697ABA
:0613A6006174696F6E0026
:0113AC000040
:1013AD00204C696768742056616C7565202020207B
:0313BD00203A00D3
:1013C0002D2D2D2D2D2D2D2D2D2D2D2D2D2D2D2D4D
:0C13D0002D2D2D2D2D2D2D2D2D2D2D0022
:1013DC00204C6967687420496E74656E7369747902
:0313EC00203A00A4
:0313EF00202500B6
:1013F2007602DB008402DB00A800DB007A01DB005E
:10140200DC01DB006C01DB00B600DB005001DB001D
:101412005E01DB00FC00DB009A00DB008C00DB00DD
:10142200FFFFFFFFFFFFFFFFFFFFFFFFFFFFFFFFCA
:10143200FFFFFFFFFFFFFFFFFFFFFFFFFFFFFFFFBA
:10144200FFFFFFFFFFFFFFFFFFFFFFFFFFFFFFFFAA
:101452000200000000000000000000000100000087
:081462000A01DB00B201DB000E
:020000040030CA
:0E00000015137F7CF98B91FFFFC0FFE0FF40DE
:00000001FF
